:060000000A128A11B22F62
:1000080064008001840A04060319003404060528E4
:10001800F800F401F5017008F200F3017208F60027
:100028007308F700781C19281A2820287608F4077E
:100038000318F50A7708F50701300310F60DF70DD8
:10004800FF3E031D21280310F80C7808031D2D28F6
:100058002E2816287508F1007408F0000800831689
:100068000313B601033083120313D8008A30D70074
:100078005530D600D60B3E28D70B3E28D80B3E2845
:10008800013083160313B6070A303602031C4D28C5
:100098004E2836280A168A113D240A128A111A3067
:1000A80083120313D8005E30D7006D30D600D60B0C
:1000B8005B28D70B5B28D80B5B286228003083129B
:1000C8000313C400C5000030C600C7000A168A1111
:1000D80056250A128A1183160313EA01EB01003030
:1000E800E5000030E4000030E3000030E2000030BA
:1000F800DD000030DC000030DB000030DA00831265
:1001080003130815061C89288A28862803308312B9
:100118000313D8008A30D7005530D600D60B922862
:10012800D70B9228D80B92288312031306189D2800
:100138009E289828033083120313D8008A30D700EA
:100148005530D600D60BA628D70BA628D80BA6283C
:100158000A168A1123270A128A1183120313081513
:10016800061CB728B828B428033083120313D80014
:100178008A30D7005530D600D60BC028D70BC028F8
:10018800D80BC028831203130618CB28CC28C628FE
:10019800033083120313D8008A30D7005530D600B5
:1001A800D60BD428D70BD428D80BD4288312031302
:1001B8000811003083160313B5000030B400003076
:1001C800B3000030B2000030BA000030B90000308F
:1001D800B8000030B700C90149080A168A11F72388
:1001E8000A128A11710883160313A5007008A40067
:1001F800490883120313D6005607CA3E84008313A6
:100208000008D700840A0008D8005708D900580801
:10021800DA00DB01DC018316031349088312031398
:10022800DD005D07A03E840083170008DE00840A15
:100238000008DF005E08E0005F08E100E201E3017A
:100248005908E0025A08031C5A0F2B292C29E102ED
:100258005B08031C5B0F31293229E2025C08031C8E
:100268005C0F37293829E302630883160313B100AA
:1002780083120313620883160313B0008312031357
:10028800610883160313AF008312031360088316F3
:100298000313AE00B11B61293108031D6029300822
:1002A800031D60292F08031D602964302E02031DD9
:1002B8005D290318602961296229052B8316031318
:1002C800310883120313A300831603133008831223
:1002D8000313A200831603132F0883120313A1002C
:1002E800831603132E0883120313A0008316031327
:1002F800490883120313D6005607CA3E84008313A5
:100308000008D700840A0008D8005708D900580800
:10031800DA00DB01DC0183160313240883120313BC
:10032800DD0083160313250883120313DE00DF01A3
:10033800E0015908DD025A08031C5A0FA429A5290F
:10034800DE025B08031C5B0FAA29AB29DF025C08ED
:10035800031C5C0FB029B129E0026008F3005F08B4
:10036800F2005E08F1005D08F0000030F700003090
:10037800F6000330F500E830F4000A168A119A24D2
:100388000A128A11730883120313A7007208A600C1
:100398007108A5007008A4000A128A1505200A121F
:1003A8008A1183120313230883160313C8008312C8
:1003B8000313220883160313C700831203132108AB
:1003C80083160313C600831203132008831603132E
:1003D800C500C81FF029F129F9290030C8000030EC
:1003E800C7000030C6000030C500C81B0C2A4808EA
:1003F800031D0D2A4708031D0D2A03304602031D5D
:10040800092AE9304502031D092A031C0C2A0D2A72
:10041800172A003083160313C8000030C7000330C2
:10042800C600E830C50083160313C81B2B2A4808EA
:10043800031D2C2A4708031D2C2A4608031D2C2AB5
:10044800C9304502031D282A031C2B2A2C2A052BF8
:10045800831603134808F3004708F2004608F10022
:100468004508F00001300A168A116F260A128A110F
:10047800730883120313A7007208A6007108A50069
:100488007008A40083160313490883120313D600C7
:100498005607013E84000A168A1100200A128A11A2
:1004A800D7000A168A1100200A128A11D8005708A4
:1004B800F0005808F1000030F11BFF30F200F300A3
:1004C80001300A168A116F260A128A1173088312DC
:1004D8000313A3007208A2007108A1007008A0000D
:1004E8000A128A15BE240A128A11831203132308DA
:1004F800BD002208BC002108BB002008BA008316F2
:100508000313350883120313C10083160313340839
:1005180083120313C00083160313330883120313D3
:10052800BF0083160313320883120313BE000A1296
:100538008A156E220A128A11831203133D08831644
:100548000313B500831203133C0883160313B40086
:10055800831203133B0883160313B3008312031398
:100568003A0883160313B2004808F3004708F2005C
:100578004608F1004508F00001300A168A116F2676
:100588000A128A11730883120313BD007208BC0093
:100598007108BB007008BA00831603133A08831267
:1005A8000313C10083160313390883120313C00011
:1005B80083160313380883120313BF00831603132B
:1005C800370883120313BE000A128A156E220A1214
:1005D8008A11831203133D0883160313BA0083128A
:1005E80003133C0883160313B900831203133B0853
:1005F80083160313B800831203133A0883160313F0
:10060800B700013083160313C90708304902031CD9
:100618000E2B0F2BF0284430F3004830F200003046
:10062800F1000030F0003A08F7003908F600380801
:10063800F5003708F4000A168A11CD250A128A1126
:100648000318272B282BC12E831203130815831692
:100658000313EA01EB013A08F3003908F2003808FD
:10066800F1003708F0003508F7003408F6003308C1
:10067800F5003208F4000A128A159E200A128A111F
:10068800730883160313E9007208E8007108E7008D
:100698007008E6006908F3006808F2006708F100CE
:1006A8006608F0000030F7000030F6000030F50072
:1006B8000030F4000A168A11CD250A128A11031C8B
:1006C800662B672B722B831603136908C000680812
:1006D800BF006708BE006608BD008B2B8316031396
:1006E8006908F3006808F2006708F1006608F0007E
:1006F8000A168A11EC230A128A1173088316031347
:10070800C0007208BF007108BE007008BD00400834
:10071800F3003F08F2003E08F1003D08F0004030C9
:10072800F7008030F6000030F5000030F4000A16BB
:100738008A11CD250A128A110318A32BA42BAE2BDC
:10074800003083160313E9000030E8000030E700AA
:100758000030E60083160313650883120313D100E3
:1007680083160313640883120313D000831603133C
:10077800630883120313CF008316031362088312DE
:100788000313CE0083160313690883120313D500DD
:1007980083160313680883120313D4008316031304
:1007A800670883120313D3008316031366088312A2
:1007B8000313D2000A168A1119240A128A11831205
:1007C8000313510883160313E1008312031350081F
:1007D80083160313E000831203134F0883160313D1
:1007E800DF00831203134E0883160313DE003F3025
:1007F80083120313A3001930A2009930A1009A3084
:10080800A00083160313610883120313A70083163D
:100818000313600883120313A600831603135F08EB
:1008280083120313A500831603135E0883120313B0
:10083800A4000A128A15BE240A128A11831203130D
:100848002308BD002208BC002108BB002008BA000C
:100858003E30A300CC30A200CC30A100CD30A000A7
:10086800831603135D0883120313A700831603136B
:100878005C0883120313A600831603135B08831214
:100888000313A500831603135A0883120313A40045
:100898000A128A15BE240A128A1183120313230826
:1008A800C1002208C0002108BF002008BE000A12AB
:1008B8008A156E220A128A11831203133D088316C1
:1008C8000313DD00831203133C0883160313DC00B3
:1008D800831203133B0883160313DB0083120313ED
:1008E8003A0883160313DA003F30AD008030AC00BD
:1008F8000030AB000030AA003F30A9009930A800B2
:100908009930A7009A30A6004008F3003F08F2008B
:100918003E08F1003D08F0004130F700A030F60035
:100928000030F5000030F4000A168A11CD250A12AD
:100938008A110318A02CA12CAC2C3E30831603136B
:10094800AD009930AC009930AB009A30AA00D92C90
:100958004230F3000C30F2000030F1000030F000BB
:10096800831603134008F7003F08F6003E08F50019
:100978003D08F4000A168A11CD250A128A110318B7
:10098800C62CC72CD92C3F3083160313AD00CC30AE
:10099800AC00CC30AB00CD30AA003F30A900D93034
:1009A800A8009930A7009A30A6003F30831203139D
:1009B800A300D930A2009930A1009A30A000831674
:1009C8000313690883120313A70083160313680827
:1009D80083120313A60083160313670883120313F5
:1009E800A50083160313660883120313A4000A12D2
:1009F8008A15BE240A128A11831203132308831648
:100A08000313A30083120313220883160313A200FF
:100A180083120313210883160313A10083120313FF
:100A2800200883160313A000423083120313A30087
:100A38003430A2000030A1000030A0008316031358
:100A48005D0883120313A700831603135C0883123F
:100A58000313A600831603135B0883120313A50070
:100A6800831603135A0883120313A4000A128A1563
:100A7800BE240A128A11831203132308BD00220818
:100A8800BC002108BB002008BA00831603132D08F8
:100A980083120313A300831603132C088312031372
:100AA800A200831603132B0883120313A1008316D5
:100AB80003132A0883120313A000831603132308C1
:100AC80083120313A7008316031322088312031348
:100AD800A60083160313210883120313A5008316A7
:100AE8000313200883120313A4000A128A15BE24D4
:100AF8000A128A11831203132308C1002208C000B6
:100B08002108BF002008BE000A128A156E220A12A8
:100B18008A11831203133D0883160313C40083123A
:100B280003133C0883160313C300831203133B0803
:100B380083160313C200831203133A0883160313A0
:100B4800C1004330F3000C30F2000030F1000030F7
:100B5800F0004408F7004308F6004208F500410891
:100B6800F4000A168A11CD250A128A110318BD2D20
:100B7800BE2DC82D433083160313C4000C30C300A8
:100B88000030C2000030C100831603134408F3008C
:100B98004308F2004208F1004108F000C330F700B2
:100BA8000C30F6000030F5000030F4000A168A1107
:100BB800CD250A128A110318E22DE32DED2DC3303D
:100BC80083160313C4000C30C3000030C200003089
:100BD800C10083160313400883120313A70083166A
:100BE80003133F0883120313A600831603133E085A
:100BF80083120313A500831603133D0883120313FE
:100C0800A40083160313290883120313A300831671
:100C18000313280883120313A2008316031327085B
:100C280083120313A10083160313260883120313E8
:100C3800A0000A128A15BE240A128A11831203130D
:100C48002308BD002208BC002108BB002008BA0008
:100C58000A168A11E0240A128A11463083120313F5
:100C6800D6003A08560283160313BB0083120313F7
:100C78003B090318013E83160313BC003C08803A65
:100C8800FF0080307F02031D4B2E19303B020318F2
:100C98004E2E4F2E552E193083160313BB000030ED
:100CA800BC0083160313440883120313BD00831684
:100CB8000313430883120313BC008316031342086B
:100CC80083120313BB008316031341088312031313
:100CD800BA000A168A11E0240A128A118312031331
:100CE8003A08831603133B0283120313C4003B081C
:100CF800031C3B0A831603133C0283120313C5002B
:100D080083160313440883120313BD0083160313C9
:100D1800430883120313BC0083160313420883128B
:100D28000313BB0083160313410883120313BA008D
:100D38000A168A11E0240A128A11831603133B0843
:100D4800831203133A07C600831603133C080318DB
:100D58003C0A831203133B07C7000A168A1156255B
:100D68000A128A11831603136908E5006808E4006B
:100D78006708E3006608E200A62F83120313081130
:100D8800831603136A086B04031DCB2ECC2EE52EA5
:100D9800E73083120313C400FF30C500E730C600F4
:100DA800FF30C7000A168A1156250A128A113430F4
:100DB80083120313D700F130D600D60BE12ED70BE0
:100DC800E12E013083160313EA070318EB0A0030FB
:100DD800EB0702306B02593003196A02031CF52E27
:100DE800F62E042F003083120313C400C500003010
:100DF800C600C7000A168A1156250A128A116228E7
:100E080000306B02963003196A0203180C2F0D2F5D
:100E1800512F6508F3006408F2006308F1006208C6
:100E2800F0004130F7007030F6000030F500003077
:100E3800F4000A168A11CD250A128A110318252FE3
:100E4800262F512FC130F3007030F2000030F1002E
:100E58000030F000831603136508F7006408F600F5
:100E68006308F5006208F4000A168A11CD250A12F3
:100E78008A110318402F412F512F28308312031352
:100E8800C4000030C5002830C6000030C7000A166C
:100E98008A1156250A128A11A62F8316031365088C
:100EA800F3006408F2006308F1006208F000C03043
:100EB800F700A030F6000030F5000030F4000A1604
:100EC8008A11CD250A128A1103186B2F6C2F7C2FDB
:100ED800463083120313C4000030C500E230C60058
:100EE800FF30C7000A168A1156250A128A11A62F42
:100EF8004030F300A030F2000030F1000030F00084
:100F0800831603136508F7006408F6006308F50004
:100F18006208F4000A168A11CD250A128A110318EC
:100F2800962F972F412FE23083120313C400FF300E
:100F3800C5004630C6000030C7000A168A1156257B
:100F48000A128A11C73083120313D600AB2FD60BAF
:100F5800AA2FAE2FDD280A128A1100288316031340
:100F68000A168A11E8230A128A11EC000A168A1155
:100F7800E9230A128A11ED000A168A11EA230A12D5
:100F88008A11EE000A168A11EB230A128A11EF0061
:100F9800831203130A128A1501200A128A11E80023
:100FA8000A128A1502200A128A11E9000A128A1501
:100FB80003200A128A11EA000A128A1504200A126A
:100FC8008A11EB00831790308400B0300A128A111E
:100FD80004200A128A118313CA308400EC300A12E2
:100FE8008A1104200A128A11E401E501E601E701E9
:080FF80083010A128A1133285B
:10100200003400343434423483120313A901A31F81
:101012000B280C281928A009A109A209A309A00AD2
:101022000319A10A0319A20A0319A30A0130A9008C
:10103200A71F1C281D282A28A409A509A609A70953
:10104200A40A0319A50A0319A60A0319A70A01305B
:10105200A9060030AD000030AC000030AB0000301B
:10106200AA002308220421042004031939283A285B
:1010720085280130A80048280130FD000310A00D8A
:10108200A10DA20DA30DFD0B3F280130A807A31F40
:101092004B284C283D280130FD000310AA0DAB0D52
:1010A200AC0DAD0DFD0B4E2823082702031D63284E
:1010B20022082602031D632821082502031D632836
:1010C20020082402031C6628672876282008A40228
:1010D2002108031C210FA5022208031C220FA602CD
:1010E2002308031C230FA7022A1401300310A30CA8
:1010F200A20CA10CA00CFF3E031D77280130A80210
:10110200031D842885284C282908031989288A2840
:101112009528AA09AB09AC09AD09AA0A0319AB0AB9
:101122000319AC0A0319AD0A2D08A3002C08A2006A
:101132002B08A1002A08A0000800770883120313D5
:10114200A4008030A4057708F8007807AB00F61FEA
:10115200AB28AC28AD282B142B080319B128B228D0
:10116200C2282B0A031DB628B728BF280030F70073
:101172000030F6000030F5000030F400F617F701F9
:10118200CA280030F7000030F6000030F5000030C9
:10119200F40073088039A4067308F8007807AC00DD
:1011A200F21FD428D528D6282C142C080319DA28A3
:1011B200DB28EB282C0A031DDF28E028E828003072
:1011C200F3000030F2000030F1000030F000F217BE
:1011D200F301F3280030F3000030F2000030F10098
:1011E2000030F0007308720471047004031DFA28C1
:1011F200FB2812290030F7000030F6000030F5001D
:101202000030F4008030F6047F30F7042408F7043D
:101212007708F3007608F2007508F1007408F00010
:101222006D2A2B08031D1629172920290030F300E7
:101232000030F2000030F1000030F0006D2A2B087F
:10124200F800F9017908FB002C087802FA00031C67
:10125200FB037A087F3EA5007B080318013E003E8F
:10126200A6007708A3007608A2007508A1007408FA
:10127200A0000030F7000030F6000030F50000302A
:10128200F4000030AA000030A9000030A8000030AD
:10129200A700AC019A292C08031950295129712958
:1012A2000130F8000310A00DA10DA20DA30DF80B43
:1012B20053290130F8000310F40DF50DF60DF70D6A
:1012C200F80B5C29AA1F6629672968297414013062
:1012D200F8000310A70DA80DA90DAA0DF80B6A2995
:1012E20073082302031D7F2972082202031D7F292E
:1012F20071082102031D7F2970082002031C822924
:10130200832998292A177008A0027108031C710FFB
:101312008B298C29A1027208031C720F9129922930
:10132200A2027308031C730F97299829A3020130A4
:10133200AC071A302C02031C9F29A0294C29230830
:101342002204210420040319A729A829C729271444
:10135200C7290130F8000310F40DF50DF60DF70D55
:10136200F80BAC29AA1FB629B729B8297414013081
:10137200F8000310A70DA80DA90DAA0DF80BBA29A4
:10138200FF30A5070318A60AFF30A607F61FCA29D1
:10139200CB29AA29AC01AA1FCF29D029EC29FF30D9
:1013A2002705F800FF302805F900FF302905FA006B
:1013B2007F302A05FB007B087A047904780403193C
:1013C200E329E429E7290130AC00EC29741CEA295D
:1013D200EB29EC29E4292C080319F029F129222A06
:1013E2000130F407003003180130F507003003180C
:1013F2000130F607003003180130F707771C022A84
:10140200032A222A7408F8007508F9007608FA00FF
:101412007708FB000130FC007B0DFB0CFA0CF90C89
:10142200F80CFC0B0D2A7B08F7007A08F600790805
:10143200F5007808F4000130A5070318A60A003069
:10144200A6072608803AFF0080307F02031D2B2A60
:10145200FF302502031C2E2A2F2A3D2AFF30831239
:101462000313A5000030A6000030F7000030F6009C
:101472000030F5000030F400831203132608803A8E
:10148200FF0080307F02031D482A01302502031825
:101492004B2A4C2A592A83120313A501A6010030B4
:1014A200F7000030F6000030F5000030F400A4012F
:1014B200831203132508AB002B1C602A612A632ABE
:1014C200F617652A7F30F6052B08F8000310780C12
:1014D200F7002408F70409290800831203133D08C2
:1014E200CA008030CA053D08C2004207CC00BC1FBA
:1014F2007B2A7C2A7D2A4C144C080319812A822AD1
:10150200922A4C0A031D862A872A8F2A0030BD00A0
:101512000030BC000030BB000030BA00BC17BD0177
:101522009A2A0030BD000030BC000030BB00003001
:10153200BA004108CB008030CB054B084A0603199C
:10154200A32AA42AA52A4A174108C2004207CB00AF
:10155200C01FAC2AAD2AAE2A4B144B080319B22A7B
:10156200B32AC32A4B0A031DB72AB82AC02A00305D
:10157200C1000030C0000030BF000030BE00C01704
:10158200C101CB2A0030C1000030C0000030BF00D2
:101592000030BE004C084B020318D02AD12AF52A8B
:1015A2004A1FD42AD52AD72A8030CA064C08CD0031
:1015B2004B08CC004D08CB003A08CD003E08BA00DB
:1015C2004D08BE003B08CD003F08BB004D08BF00E0
:1015D2003C08CD004008BC004D08C0003D08CD00CD
:1015E2004108BD004D08C100CD014B08C200C30136
:1015F2004308C5004C084202C400031CC503450849
:10160200803AFF0080307F02031D092B1A3044020A
:10161200031C0C2B0D2B422B831203133D083C049D
:101622003B043A04031D162B182B0130192B0030F2
:10163200CD000030BD000030BC000030BB000030E7
:10164200BA004B08CC004A2B4D1C282B292B302BDF
:101652004D08C2000310420C0138CD00322B03109A
:10166200CD0C3A1C352B362B372BCD170130C2004F
:101672003D0DBD0CBC0CBB0CBA0CC20B392B01309E
:10168200CC07831203134B084C02031C492B4A2B31
:10169200252B4A1B4D2B4E2B952B4C08031D522BF1
:1016A200532B5C2B0030BD000030BC000030BB006F
:1016B2000030BA00BD2C3E08BA073F0803110318D8
:1016C200013E0319652BBB07400803110318013EB5
:1016D20003196C2BBC07410803110318013E0319BF
:1016E200732BBD073D1C762B772B492C4D1C7A2B77
:1016F2007B2B822B4D08C2000310420C0138CD0017
:10170200842B0310CD0C3A1C872B882B892BCD17E9
:101712000130C2003D0DBD0CBC0CBB0CBA0CC20B9F
:101722008B2B0130CC07492C3D08803AFF00410841
:10173200803A7F02031DA72B40083C02031DA72B02
:101742003F083B02031DA72B3E083A020318AA2BAF
:10175200AB2B022CFF30C200FF30C300FF30C400AD
:10176200FF30C5003E08C6003F08C7004008C80059
:101772004108C9003A08C6023B08031C3B0FC22BB2
:10178200C32BC7023C08031C3C0FC82BC92BC80241
:101792003D08031C3D0FCE2BCF2BC9024608C207C2
:1017A20047080318470FD62BD72BC307480803183F
:1017B200480FDC2BDD2BC40749080318490AC5076B
:1017C2004508BD004408BC004308BB004208BA00FB
:1017D2008030CA064D03FF3ACD004D08031DF22B9F
:1017E200F32B102C0130BA07003003180130BB076D
:1017F200003003180130BC07003003180130BD0768
:10180200102C3E08BA023F08031C3F0FBB024008DF
:10181200031C400FBC024108031C410FBD023D08DE
:101822003C043B043A04031D172C182C452C4D088C
:10183200031D1C2C1D2C452C0030BD000030BC00AB
:101842000030BB000030BA00BD2C0130C2000310D2
:10185200BA0DBB0DBC0DBD0DC20B282CCD1F322CF9
:10186200332C342C3A144D1C372C382C3C2C0314BA
:101872004D0DCD003E2C0310CD0D4C080319422C0A
:10188200432C452C0130CC02BC1F482C492C262C61
:10189200CB01CD1F4D2C4E2C5C2C4D087F390319EA
:1018A200532C542C572C0130CB005C2C3A1C5A2C54
:1018B2005B2C5C2C542C4B080319602C612C932C50
:1018C2000130BA07003003180130BB07003003189B
:1018D2000130BC07003003180130BD073D1C722CDB
:1018E200732C932C3A08C2003B08C3003C08C40086
:1018F2003D08C5000130C600450DC50CC40CC30C23
:10190200C20CC60B7D2C4508BD004408BC00430830
:10191200BB004208BA004C0A0319902C912C932C5C
:101922000130CC074C0A0319972C982C9D2C4C089B
:10193200031D9C2C9D2CAB2C0030BD000030BC0044
:101942000030BB000030BA004C08031DA92CAA2CA1
:10195200AB2CCA014C1CAE2CAF2CB12CBC17B32C37
:101962007F30BC054C08C2000310420CBD00CA1FE8
:10197200BB2CBC2CBD2CBD170800831203132308FB
:10198200AD008030AD052308A8002807B300A21FD0
:10199200CB2CCC2CCD2C331433080319D12CD22CC4
:1019A200E12C330A031DD62CD72CDF2C0030A300E8
:1019B2000030A2000030A1000030A000A217E92CE4
:1019C2000030A3000030A2000030A1000030A000CF
:1019D20027088039AD062708A8002807B200A61FED
:1019E200F32CF42CF52C321432080319F92CFA2CAE
:1019F200092D320A031DFE2CFF2C072D0030A700F3
:101A02000030A6000030A5000030A400A617112D5A
:101A12000030A7000030A6000030A5000030A4006E
:101A220032080319152D162D1B2D3308031D1A2DEF
:101A32001B2D242D0030A3000030A2000030A10095
:101A42000030A000FF2F2008F00026080A128A1199
:101A52000C200A128A15710883120313B900700848
:101A6200B8003808A800A901AA01AB012B08B100EF
:101A72002A08B0002908AF002808AE003908A800DB
:101A8200A901AA01AB012B08B7002A08B600290850
:101A9200B5002808B4002108F00025080A128A11AE
:101AA2000C200A128A15710883120313B9007008F8
:101AB200B8003808A800A901AA01AB012808AE079E
:101AC200290803110318013E0319682DAF072A08DC
:101AD20003110318013E03196F2DB0072B080311E0
:101AE2000318013E0319762DB1073908A800A90190
:101AF200AA01AB012808B407290803110318013E03
:101B02000319842DB5072A0803110318013E03198E
:101B12008B2DB6072B0803110318013E0319922DD2
:101B2200B7072208F00024080A128A110C200A12B0
:101B32008A15710883120313B9007008B8003808B7
:101B4200A800A901AA01AB012808AE0729080311C0
:101B52000318013E0319AE2DAF072A08031103181B
:101B6200013E0319B52DB0072B0803110318013EDE
:101B72000319BC2DB1073908A800A901AA01AB01BC
:101B82002808B407290803110318013E0319CA2DB6
:101B9200B5072A0803110318013E0319D12DB60710
:101BA2002B0803110318013E0319D82DB70708307B
:101BB200A8000310AE0DAF0DB00DB10DA80BDA2DBC
:101BC2002108F00024080A128A110C200A128A1530
:101BD200710883120313B9007008B8003808A8000E
:101BE2003908A900AA01AB012808AE072908031188
:101BF2000318013E0319FE2DAF072A08031103182B
:101C0200013E0319052EB0072B0803110318013EEC
:101C120003190C2EB1072008F00025080A128A11B8
:101C22000C200A128A15710883120313B900700876
:101C3200B8003808A8003908A900AA01AB01280891
:101C4200AE07290803110318013E0319292EAF0715
:101C52002A0803110318013E0319302EB0072B087E
:101C620003110318013E0319372EB1070830A800EB
:101C72000310AE0DAF0DB00DB10DA80B392E20081B
:101C8200F00024080A128A110C200A128A1571081F
:101C920083120313B9007008B8003808A800390885
:101CA200A900AA01AB012808AE07290803110318ED
:101CB200013E03195D2EAF072A0803110318013EE6
:101CC2000319642EB0072B0803110318013E0319F0
:101CD2006B2EB1072108F00026080A128A110C2087
:101CE2000A128A15710883120313B9007008B8002A
:101CF2003808A8003908A900AA01AB012808B407CE
:101D0200290803110318013E0319882EB5072A0872
:101D120003110318013E03198F2EB6072B08031176
:101D22000318013E0319962EB7072208F000250872
:101D32000A128A110C200A128A15710883120313DF
:101D4200B9007008B8003808A8003908A900AA012B
:101D5200AB012808B407290803110318013E03192F
:101D6200B32EB5072A0803110318013E0319BA2E30
:101D7200B6072B0803110318013E0319C12EB7073A
:101D82002208F00026080A128A110C200A128A156B
:101D9200710883120313B9007008B8003808A8004C
:101DA2003908A900AA01AB0108300310A80DA90D3A
:101DB200AA0DAB0DFF3E031DD62E2808B407290835
:101DC20003110318013E0319E72EB5072A08031170
:101DD2000318013E0319EE2EB6072B080311031850
:101DE200013E0319F52EB7072E08A8002F08A900F7
:101DF2003008AA003108AB0018300310AB0CAA0C53
:101E0200A90CA80CFF3E031DFE2E2808B4072908C2
:101E120003110318013E03190F2FB5072A080311F6
:101E22000318013E0319162FB6072B0803110318D6
:101E3200013E03191D2FB7070830A8000310AE0D8D
:101E4200AF0DB00DB10DA80B1F2F33083207A8003C
:101E5200A901A90D2808823EB80029080318013EED
:101E6200FF3EB900512F0130A8000310B40DB50D8B
:101E7200B60DB70DA80B362FB11F402F412F422FA1
:101E820034140130A8000310AE0DAF0DB00DB10D2A
:101E9200A80B442FFF30B8070318B90AFF30B9075F
:101EA200B61F542F552F342FB201B11F592F5A2F5D
:101EB200762FFF302E05A800FF302F05A900FF3036
:101EC2003005AA007F303105AB002B082A04290413
:101ED200280403196D2F6E2F712F0130B200762F57
:101EE200341C742F752F762F6E2F320803197A2F18
:101EF2007B2FAC2F0130B407003003180130B50737
:101F0200003003180130B607003003180130B7075C
:101F1200371C8C2F8D2FAC2F3408A8003508A90050
:101F22003608AA003708AB000130AC002B0DAB0C11
:101F3200AA0CA90CA80CAC0B972F2B08B7002A08E7
:101F4200B6002908B5002808B4000130B807031804
:101F5200B90A0030B9073908803AFF0080307F02A1
:101F6200031DB52FFF303802031CB82FB92FC42F21
:101F72007F3083120313B7008030B6000030B50003
:101F82000030B400F52F831203133908803AFF00A2
:101F920080307F02031DCF2F013038020318D22F69
:101FA200D32FDF2F003083120313B7000030B600A7
:101FB2000030B5000030B400AD01F52F83120313D9
:101FC2003808B300FF30B405FF30B5057F30B605E1
:101FD2000030B705331CEE2FEF2FF02FB617330862
:101FE200A8000310280CB7002D08B7043708A30077
:101FF2003608A2003508A1003408A00008001030FD
:102002008A000408840A82070034BA34FF34CE34CA
:10201200FF34E234FF34F634FF340A3400341E3421
:0A2022000034323400344634003438
:1027D0009A349934D9343F34730872047104700404
:1027E0000319F32BF42BF62B8030F3060800F300CB
:1027F000C730831203139F057308F20002300310E1
:10280000F20DFF3E031DFF2B0310720D9F042130BC
:10281000F200F20B092C831203131F151F19112C40
:10282000122C0E2C1E08F100831603131E08F00054
:102830000800803083120313D1065508BD005408E8
:10284000BC005308BB005208BA005108C100500830
:10285000C0004F08BF004E08BE000A128A156E2243
:102860000A168A11831203133D08D1003C08D000D8
:102870003B08CF003A08CE000800FF308312031354
:102880008700FF3083160313850007308900C130AD
:1028900086008701880180309F00813083120313F6
:1028A0009F00FF308316031392000C308312031332
:1028B00097000C309D0004309200FF309500FF30EF
:1028C0009B000800700871040319672C682C952C74
:1028D0000130F400742C01300310F00DF10DFF3EB7
:1028E000031D6C2C0130F407F11F772C782C6B2C16
:1028F00071087302031D7E2C70087202031C812C68
:10290000822C882C7008F2027108031CF303F30276
:1029100001300310F10CF00CFF3E031D892C013037
:10292000F402031D942C952C782C7308F100720886
:10293000F00008000030FC000030FB000030FA001E
:102940000030F900701CA52CA62CBD2C7408F907CA
:10295000750803110318013E0319AF2CFA07760816
:1029600003110318013E0319B62CFB077708031166
:102970000318013E0319BD2CFC070130F8000310B9
:10298000F40DF50DF60DF70DF80BBF2C013003100B
:10299000F30CF20CF10CF00CFF3E031DC72C730876
:1029A000720471047004031DD62CD72CA22C7C0851
:1029B000F3007B08F2007A08F1007908F0000800C3
:1029C0000310831203133C0D3D0DC3004308031D88
:1029D000EA2CEB2CF42C0030BD000030BC000030A1
:1029E000BB000030BA00552D3A08BE003B08BF00BE
:1029F0003C08C0003D08C1001F300310C10CC00CD2
:102A0000BF0CBE0CFF3E031DFD2C3E08C200BC17D0
:102A1000FF30BA05FF30BB05FF30BC050030BD05F7
:102A20009630C302C31F152D162D2E2D4308803A54
:102A3000973E03181C2D1D2D1E2DEB2C013003106D
:102A4000BD0CBC0CBB0CBA0CFF3E031D1F2D01308E
:102A5000C307031D2C2D2D2D1E2D452D2030430287
:102A6000031C332D342D402DEB2C0130BE00031000
:102A7000BA0DBB0DBC0DBD0DBE0B372D0130C30211
:102A80004308031D442D452D352D42080319492DBA
:102A90004A2D552DBA09BB09BC09BD09BA0A03194B
:102AA000BB0A0319BC0A0319BD0A080083120313E9
:102AB000C51B5B2D5C2D752D07144508803AFF0062
:102AC00080307F02031D662D8D304402031C692D6A
:102AD0006A2D702D8C3083120313C4000030C500A2
:102AE0008312031344099500922D0710C409C509E8
:102AF000C40A0319C50A4508803AFF0080307F02E6
:102B0000031D842D8D304402031C872D882D8E2DAE
:102B10008C3083120313C4000030C50083120313EA
:102B200044089500C71B952D962DAF2D0716470815
:102B3000803AFF0080307F02031DA02D8D304602B9
:102B4000031CA32DA42DAA2D8C3083120313C600C1
:102B50000030C7008312031346099B00CC2D0712D7
:102B6000C609C709C60A0319C70A4708803AFF0001
:102B700080307F02031DBE2D8D304602031CC12D07
:102B8000C22DC82D8C3083120313C6000030C7003D
:102B90008312031346089B00080000307005F800FC
:102BA00000307105F90080307205FA007F3073053E
:102BB000FB007B087A0479047804031DE02DE12DE5
:102BC000E92D0030F3000030F2000030F100003059
:102BD000F00000307405F80000307505F900803011
:102BE0007605FA007F307705FB007B087A047904CC
:102BF0007804031DFC2DFD2D052E0030F70000305C
:102C0000F6000030F5000030F400F31F082E092E06
:102C10002D2E0030F8000030F9000030FA0080302E
:102C2000FB007008F8027108031C710F182E192E92
:102C3000F9027208031C720F1E2E1F2EFA0273086F
:102C4000031C730F242E252EFB027B08F3007A0849
:102C5000F2007908F1007808F000F71F302E312ECD
:102C6000552E0030F8000030F9000030FA008030B6
:102C7000FB007408F8027508031C750F402E412EE6
:102C8000F9027608031C760F462E472EFA027708C3
:102C9000031C770F4C2E4D2EFB027B08F7007A08A1
:102CA000F6007908F5007808F4008030F3068030EB
:102CB000F70677087302031D672E76087202031D5C
:102CC000672E75087102031D672E740870020318C1
:102CD0006A2E6B2E6D2E03106E2E03140800F80062
:102CE00078080319742E752E892EF31F782E792EED
:102CF000892E7009FA007109FB007209FC00730942
:102D0000FD00FA0A0319FB0A0319FC0A0319FD0A5C
:102D1000912E7308FD007208FC007108FB0070081A
:102D2000FA007308720471047004031D982E992E22
:102D3000A22E0030F3000030F2000030F10000302D
:102D4000F000222F9630F900B02E0130F907013043
:102D50000310FD0CFC0CFB0CFA0CFF3E031DA82E0F
:102D6000FE307D05031DB52EB62EA52ED02E0130CA
:102D7000F9070130FA07003003180130FB07003073
:102D800003180130FC07003003180130FD07013043
:102D90000310FD0CFC0CFB0CFA0CFF3E031DC82EAF
:102DA000FF307D05031DD52ED62EB72EE22E013025
:102DB000F9020130F4000310FA0DFB0DFC0DFD0DBE
:102DC000F40BDB2EFC1BE52EE62EEC2E02307902F6
:102DD0000318EB2EEC2ED72E7918EF2EF02EF82EAE
:102DE000FF30FA05FF30FB057F30FC05FF30FD05A5
:102DF0000310F90C7908F400F501F601F701183019
:102E00000310F40DF50DF60DF70DFF3E031D002F19
:102E10007408FA047508FB047608FC047708FD04BE
:102E200078080319142F152F1A2FF31F182F192F95
:102E30001A2FFD177D08F3007C08F2007B08F100D3
:102E40007A08F000080083120313A4012408F50097
:102E50007507CA3E8400FF3083138000840A033064
:102E600080002408F5007507A03E840083178001C8
:102E7000840A80010130A40708302402031C412F7A
:102E8000422F262FA001A101A60126080A168A11A9
:102E9000F7230A168A11710883120313A30070081E
:102EA000A2002608F5007507CA3E840083130008B7
:102EB000F600840A0008F70077082302031D622F3A
:102EC000760822020318652F662F702F2608F5005A
:102ED0007507CA3E840022088000840A2308800007
:102EE0002608F5007507A03E840083170008F60049
:102EF000840A0008F70023087702031D812F2208A7
:102F000076020318842F852F8F2F2608F50075076A
:102F1000A03E840022088000840A2308800001303B
:102F2000A60708302602031C962F972F452F413005
:102F3000F600EE30F500F50B9B2FF60B9B2F0000F3
:102F40001930F0000030F100831203132108F30060
:102F50002008F2000A168A1162240A168A117008E3
:102F60007104031DB42FB52FB92F0430831203133E
:102F70008806013083120313A0070318A10A00304A
:102F8000A10701302102903003192002031CC92F30
:102F9000CA2F442FA5012508F5007507A03E84001F
:102FA00083170008F600840A0008F7002508F800D7
:102FB0007807CA3E840083130008F900840A0008D9
:102FC000FA0076087907FB0077080318770A7A0772
:102FD000FC000310FC0CFB0C2508FD007D07903E57
:102FE00084007B0883178000840A7C0880000130FD
:102FF000A50708302502031CFE2FFF2FCB2F08004A
:02400E00723FFF
:00000001FF
