:060000000A128A11F32F21
:100008000030FC000030FB000030FA000030F9003E
:10001800701C0F28102827287408F9077508031181
:100028000318013E03191928FA0776080311031863
:10003800013E03192028FB07770803110318013E26
:1000480003192728FC070130F8000310F40DF50DFB
:10005800F60DF70DF80B292801300310F30CF20CFC
:10006800F10CF00CFF3E031D312873087204710473
:100078007004031D402841280C287C08F3007B08E5
:10008800F2007A08F1007908F0000800F800780812
:1000980003194F2850286428F31F5328542864282C
:1000A8007009FA007109FB007209FC007309FD0070
:1000B800FA0A0319FB0A0319FC0A0319FD0A6C283A
:1000C8007308FD007208FC007108FB007008FA0054
:1000D8007308720471047004031D732874287D2842
:1000E8000030F3000030F2000030F1000030F00082
:1000F800FD289630F9008B280130F90701300310EC
:10010800FD0CFC0CFB0CFA0CFF3E031D8328FE3093
:100118007D05031D902891288028AB280130F90718
:100128000130FA07003003180130FB0700300318CC
:100138000130FC07003003180130FD0701300310BF
:10014800FD0CFC0CFB0CFA0CFF3E031DA328FF3032
:100158007D05031DB028B1289228BD280130F90279
:100168000130F4000310FA0DFB0DFC0DFD0DF40B2E
:10017800B628FC1BC028C128C728023079020318FA
:10018800C628C728B2287918CA28CB28D328FF3010
:10019800FA05FF30FB057F30FC05FF30FD05031035
:1001A800F90C7908F400F501F601F701183003108D
:1001B800F40DF50DF60DF70DFF3E031DDB28740851
:1001C800FA047508FB047608FC047708FD0478082F
:1001D8000319EF28F028F528F31FF328F428F52849
:1001E800FD177D08F3007C08F2007B08F1007A080F
:1001F800F0000800831203132308AD008030AD051A
:100208002308A8002807B300A21F0B290C290D29D1
:10021800331433080319112912292129330A031D1C
:10022800162917291F290030A3000030A20000302A
:10023800A1000030A000A21729290030A300003037
:10024800A2000030A1000030A00027088039AD06C8
:100258002708A8002807B200A61F33293429352902
:1002680032143208031939293A294929320A031D57
:100278003E293F2947290030A7000030A60000305A
:10028800A5000030A400A61751290030A7000030AF
:10029800A6000030A5000030A40032080319552933
:1002A80056295B293308031D5A295B296429003024
:1002B800A3000030A2000030A1000030A0003F2CB5
:1002C8002008F00026080A128A1529210A128A1124
:1002D800710883120313B9007008B8003808A80021
:1002E800A901AA01AB012B08B1002A08B00029080E
:1002F800AF002808AE003908A800A901AA01AB017F
:100308002B08B7002A08B6002908B5002808B40049
:100318002108F00025080A128A1529210A128A11D3
:10032800710883120313B9007008B8003808A800D0
:10033800A901AA01AB012808AE072908031103186F
:10034800013E0319A829AF072A0803110318013E23
:100358000319AF29B0072B0803110318013E03192D
:10036800B629B1073908A800A901AA01AB012808D4
:10037800B407290803110318013E0319C429B50756
:100388002A0803110318013E0319CB29B6072B08C5
:1003980003110318013E0319D229B7072208F000F8
:1003A80024080A128A1529210A128A11710883124F
:1003B8000313B9007008B8003808A800A901AA01F9
:1003C800AB012808AE07290803110318013E0319D9
:1003D800EE29AF072A0803110318013E0319F5296E
:1003E800B0072B0803110318013E0319FC29B107B4
:1003F8003908A800A901AA01AB012808B4072908EF
:1004080003110318013E03190A2AB5072A08031124
:100418000318013E0319112AB6072B080311031804
:10042800013E0319182AB7070830A8000310AE0DBB
:10043800AF0DB00DB10DA80B1A2A2108F000240841
:100448000A128A1529210A128A11710883120313C4
:10045800B9007008B8003808A8003908A900AA012E
:10046800AB012808AE07290803110318013E031938
:100478003E2AAF072A0803110318013E0319452A2B
:10048800B0072B0803110318013E03194C2AB107C2
:100498002008F00025080A128A1529210A128A1153
:1004A800710883120313B9007008B8003808A8004F
:1004B8003908A900AA01AB012808AE0729080311C9
:1004C8000318013E0319692AAF072A080311031804
:1004D800013E0319702AB0072B0803110318013EC7
:1004E8000319772AB1070830A8000310AE0DAF0D25
:1004F800B00DB10DA80B792A2008F00024080A12C3
:100508008A1529210A128A11710883120313B90066
:100518007008B8003808A8003908A900AA01AB017A
:100528002808AE07290803110318013E03199D2A5C
:10053800AF072A0803110318013E0319A42AB007BC
:100548002B0803110318013E0319AB2AB107210830
:10055800F00026080A128A1529210A128A11710840
:1005680083120313B9007008B8003808A8003908C6
:10057800A900AA01AB012808B40729080311031828
:10058800013E0319C82AB5072A0803110318013EBA
:100598000319CF2AB6072B0803110318013E0319C4
:1005A800D62AB7072208F00025080A128A15292139
:1005B8000A128A11710883120313B9007008B8006F
:1005C8003808A8003908A900AA01AB012808B4070F
:1005D800290803110318013E0319F32AB5072A084D
:1005E80003110318013E0319FA2AB6072B08031151
:1005F8000318013E0319012BB7072208F00026084B
:100608000A128A1529210A128A1171088312031302
:10061800B9007008B8003808A8003908A900AA016C
:10062800AB0108300310A80DA90DAA0DAB0DFF3EB4
:10063800031D162B2808B407290803110318013EC7
:100648000319272BB5072A0803110318013E0319BC
:100658002E2BB6072B0803110318013E0319352B5F
:10066800B7072E08A8002F08A9003008AA003108EB
:10067800AB0018300310AB0CAA0CA90CA80CFF3E59
:10068800031D3E2B2808B407290803110318013E4F
:1006980003194F2BB5072A0803110318013E031944
:1006A800562BB6072B0803110318013E03195D2BBF
:1006B800B7070830A8000310AE0DAF0DB00DB10D8F
:1006C800A80B5F2B33083207A800A901A90D280839
:1006D800823EB80029080318013EFF3EB900912B5D
:1006E8000130A8000310B40DB50DB60DB70DA80B59
:1006F800762BB11F802B812B822B34140130A8005C
:100708000310AE0DAF0DB00DB10DA80B842BFF304B
:10071800B8070318B90AFF30B907B61F942B952BF1
:10072800742BB201B11F992B9A2BB62BFF302E05D3
:10073800A800FF302F05A900FF303005AA007F3040
:100748003105AB002B082A04290428040319AD2B12
:10075800AE2BB12B0130B200B62B341CB42BB52B09
:10076800B62BAE2B32080319BA2BBB2BEC2B01305E
:10077800B407003003180130B50700300318013002
:10078800B607003003180130B707371CCC2BCD2B28
:10079800EC2B3408A8003508A9003608AA00370849
:1007A800AB000130AC002B0DAB0CAA0CA90CA80CAB
:1007B800AC0BD72B2B08B7002A08B6002908B500C0
:1007C8002808B4000130B8070318B90A0030B9077F
:1007D8003908803AFF0080307F02031DF52BFF3077
:1007E8003802031CF82BF92B042C7F3083120313D7
:1007F800B7008030B6000030B5000030B400352CAA
:10080800831203133908803AFF0080307F02031DEA
:100818000F2C013038020318122C132C1F2C003017
:1008280083120313B7000030B6000030B500003063
:10083800B400AD01352C831203133808B300FF3020
:10084800B405FF30B5057F30B6050030B705331C59
:100858002E2C2F2C302CB6173308A8000310280C88
:10086800B7002D08B7043708A3003608A2003508DA
:10087800A1003408A00008000A128A1507210A12EC
:100888008A111A3083120313D0005E30CF006D3006
:10089800CE00CE0B4D2CCF0B4D2CD00B4D2C542C09
:1008A8000030F000F1000030F200F3000A128A155F
:1008B80088210A128A11831203130815061C652C55
:1008C800662C622C033083120313D0008A30CF00C9
:1008D8005530CE00CE0B6E2CCF0B6E2CD00B6E2C61
:1008E800831203130618792C7A2C742C0330831284
:1008F8000313D0008A30CF005530CE00CE0B822CA7
:10090800CF0B822CD00B822C0A128A1534230A12A0
:100918008A11831203130815061C932C942C902C0F
:10092800033083120313D0008A30CF005530CE0035
:10093800CE0B9C2CCF0B9C2CD00B9C2C831203131E
:100948000618A72CA82CA22C033083120313D0005E
:100958008A30CF005530CE00CE0BB02CCF0BB02C48
:10096800D00BB02C83120313081100308316031325
:10097800C9000030C8000030C7000030C600003091
:10098800D1000030D0000030CF000030CE00DA01B6
:100998005A080A128A15E5200A128A117108831664
:1009A8000313C1007008C0005A0883120313CE0055
:1009B8004E07B03E840083130008CF00840A000865
:1009C800D0004F08D1005008D200D301D4018316BB
:1009D80003135A0883120313D5005507A03E840059
:1009E8000008D600840A0008D7005608D80057081F
:1009F800D900DA01DB015108D8025208031C520F52
:100A0800062D072DD9025308031C530F0C2D0D2D4D
:100A1800DA025408031C540F122D132DDB025B0855
:100A280083160313C500831203135A08831603138E
:100A3800C40083120313590883160313C3008312D7
:100A48000313580883160313C200C51B3C2D450821
:100A5800031D3B2D4408031D3B2D4308031D3B2D5F
:100A680032304202031D382D03183B2D3C2D3D2DFD
:100A7800E82E83160313450883120313A300831675
:100A88000313440883120313A200831603134308B5
:100A980083120313A100831603134208831203135E
:100AA800A000831603135A0883120313CE004E07BF
:100AB800B03E840083130008CF00840A0008D000E9
:100AC8004F08D1005008D200D301D4018316031374
:100AD800400883120313D5008316031341088312B9
:100AE8000313D600D701D8015108D5025208031CB8
:100AF800520F7F2D802DD6025308031C530F852DCE
:100B0800862DD7025408031C540F8B2D8C2DD80228
:100B18005808F3005708F2005608F1005508F0008D
:100B28000030F7000030F6000330F500E830F4003C
:100B38000A128A1104200A128A11730883120313F5
:100B4800A7007208A6007108A5007008A4000A1280
:100B58008A15F9210A128A118312031323088316AE
:100B68000313D50083120313220883160313D4003A
:100B780083120313210883160313D300831203136C
:100B8800200883160313D200D51FCB2DCC2DD42DCE
:100B98000030D5000030D4000030D3000030D2003F
:100BA800D51BE72D5508031DE82D5408031DE82D16
:100BB80003305302031DE42DE9305202031DE42DD6
:100BC800031CE72DE82DF22D003083160313D50002
:100BD8000030D4000330D300E830D200831603136A
:100BE8005508CD005408CC005308CB005208CA0061
:100BF800CD1B0E2E4D08031D0F2E4C08031D0F2E66
:100C08004B08031D0F2EC9304A02031D0B2E031C6F
:100C18000E2E0F2EE82E831603134D08F3004C08F2
:100C2800F2004B08F1004A08F00001300A128A115C
:100C38004A200A128A11730883120313A700720844
:100C4800A6007108A5007008A400831603135A08AB
:100C580083120313CE004E07013E84000A128A1540
:100C680000200A128A11CF000A128A1500200A12DF
:100C78008A11D0004F08F0005008F1000030F11B35
:100C8800FF30F200F30001300A128A114A200A12DA
:100C98008A11730883120313A3007208A200710853
:100CA800A1007008A0000A128A11FE200A128A11F7
:100CB800831203132308BD002208BC002108BB00CF
:100CC8002008BA0083160313490883120313C100CE
:100CD80083160313480883120313C00083160313F3
:100CE800470883120313BF008316031346088312B1
:100CF8000313BE000A128A15B0250A128A1183123C
:100D080003133D0883160313C900831203133C0819
:100D180083160313C800831203133B0883160313B7
:100D2800C700831203133A0883160313C6004D083D
:100D3800F3004C08F2004B08F1004A08F0000130BB
:100D48000A128A114A200A128A117308831203139D
:100D5800BD007208BC007108BB007008BA00831699
:100D68000313510883120313C10083160313500899
:100D780083120313C000831603134F08831203134F
:100D8800BF00831603134E0883120313BE000A1212
:100D98008A15B0250A128A11831203133D08831697
:100DA8000313D100831203133C0883160313D000E6
:100DB800831203133B0883160313CF008312031314
:100DC8003A0883160313CE00013083160313DA079B
:100DD80008305A02031CF12EF22ECC2C4330F300BB
:100DE800C830F2000030F1000030F0005108F70080
:100DF8005008F6004F08F5004E08F4000A128A154C
:100E080092220A128A1103180A2F0B2FDA2F83163F
:100E180003135108F3005008F2004F08F1004E0880
:100E2800F0004908F7004808F6004708F5004608AA
:100E3800F4000A128A15E0230A128A11730883162D
:100E48000313D9007208D8007108D7007008D600BB
:100E58005908F3005808F2005708F1005608F00046
:100E68004230F7000C30F6000030F5000030F40096
:100E78000A128A1592220A128A110318442F452F42
:100E8800532F2D30F0000030F100F130F200FF3028
:100E9800F3000A128A1588210A128A11E52F83168F
:100EA80003135908F3005808F2005708F1005608D0
:100EB800F0004130F7002030F6000030F500003037
:100EC800F4000A128A1592220A128A1103186D2F49
:100ED8006E2F7B2F2D30F0000030F1000030F20033
:100EE800F3000A128A1588210A128A11E52FC230E6
:100EF800F3000C30F2000030F1000030F0008316EF
:100F080003135908F7005808F6005708F500560863
:100F1800F4000A128A1592220A128A110318952FD0
:100F2800962FA42FF130F000FF30F1002D30F200A1
:100F38000030F3000A128A1588210A128A11E52F57
:100F4800C130F3002030F2000030F1000030F00032
:100F5800831603135908F7005808F6005708F500D8
:100F68005608F4000A128A1592220A128A110318E6
:100F7800BE2FBF2FCC2F0030F000F1002D30F20033
:100F88000030F3000A128A1588210A128A11E52F07
:100F98001E30F0000030F1001E30F2000030F30087
:100FA8000A128A1588210A128A11E52F0030F000EA
:100FB800F1000030F200F3000A128A1588210A12A3
:100FC8008A11043083120313CF003D30CE00CE0BBC
:100FD800EB2FCF0BEB2FB92C0A128A1100288313A1
:100FE800A0308400C0300A128A15DD200A128A1146
:100FF80083010A128A11402C08308A000408840AE6
:1010080082070034BA34FF34CE34FF34E234FF347C
:10101800F634FF340A3400341E34003432340034D9
:041028004634003416
:1011BA0064008001840A0406031900340406DE2848
:1011CA00F300C730831203139F057308F20002303D
:1011DA000310F20DFF3E031DED280310720D9F044C
:1011EA005330F200F20BF728831203131F151F194D
:1011FA00FF280029FC281E08F100831603131E0885
:10120A00F0000800831203138701FF3083160313CB
:10121A008500073089000130860087018801C030C7
:10122A009F008130831203139F00FF30831603133C
:10123A0092000C308312031397000C309D00043087
:10124A00920095019B010800F800F401F50170086D
:10125A00F200F3017208F6007308F700781C3629C9
:10126A0037293D297608F4070318F50A7708F507A0
:10127A0001300310F60DF70DFF3E031D3E29031042
:10128A00F80C7808031D4A294B2933297508F100FF
:10129A007408F000080070087104031955295629CA
:1012AA0083290130F400622901300310F00DF10D99
:1012BA00FF3E031D5A290130F407F11F65296629EB
:1012CA00592971087302031D6C2970087202031CE4
:1012DA006F29702976297008F2027108031CF3033A
:1012EA00F30201300310F10CF00CFF3E031D7729C5
:1012FA000130F402031D8229832966297308F1004B
:10130A007208F0000800F11B8B298C29A529831289
:10131A00031307107108803AFF0081307F02031D12
:10132A00982900307002031C9B299C29A029FF30B0
:10133A00F0000030F1007008831203139500C229EF
:10134A00831203130714F009F109F00A0319F10AC9
:10135A007108803AFF0081307F02031DB6290030F0
:10136A007002031CB929BA29BE29FF30F0000030E7
:10137A00F1007009831203139500F31BC529C629CE
:10138A00DD2907127308803AFF0081307F02031DAE
:10139A00D02900307202031CD329D429D829FF305E
:1013AA00F2000030F3007208831203139B00F8293D
:1013BA000716F209F309F20A0319F30A7308803AC5
:1013CA00FF0081307F02031DEC2900307202031CEA
:1013DA00EF29F029F429FF30F2000030F3007209F6
:1013EA00831203139B00080083120313A901A31F8E
:1013FA00FF29002A0D2AA009A109A209A309A00A06
:10140A000319A10A0319A20A0319A30A0130A900A0
:10141A00A71F102A112A1E2AA409A509A609A70985
:10142A00A40A0319A50A0319A60A0319A70A01306F
:10143A00A9060030AD000030AC000030AB0000302F
:10144A00AA00230822042104200403192D2A2E2A83
:10145A00792A0130A8003C2A0130FD000310A00DB2
:10146A00A10DA20DA30DFD0B332A0130A807A31F5E
:10147A003F2A402A312A0130FD000310AA0DAB0D84
:10148A00AC0DAD0DFD0B422A23082702031D572A76
:10149A0022082602031D572A21082502031D572A5E
:1014AA0020082402031C5A2A5B2A6A2A2008A4025A
:1014BA002108031C210FA5022208031C220FA602E1
:1014CA002308031C230FA7022A1401300310A30CBC
:1014DA00A20CA10CA00CFF3E031D6B2A0130A8022E
:1014EA00031D782A792A402A290803197D2A7E2A87
:1014FA00892AAA09AB09AC09AD09AA0A0319AB0AD8
:10150A000319AC0A0319AD0A2D08A3002C08A2007E
:10151A002B08A1002A08A000080000307005F80076
:10152A0000307105F90080307205FA007F307305CA
:10153A00FB007B087A0479047804031DA52AA62AED
:10154A00AE2A0030F3000030F2000030F100003023
:10155A00F00000307405F80000307505F90080309D
:10156A007605FA007F307705FB007B087A04790458
:10157A007804031DC12AC22ACA2A0030F7000030A3
:10158A00F6000030F5000030F400F31FCD2ACE2A11
:10159A00F22A0030F8000030F9000030FA008030FA
:1015AA00FB007008F8027108031C710FDD2ADE2A9D
:1015BA00F9027208031C720FE32AE42AFA0273087A
:1015CA00031C730FE92AEA2AFB027B08F3007A0854
:1015DA00F2007908F1007808F000F71FF52AF62AD8
:1015EA001A2B0030F8000030F9000030FA00803081
:1015FA00FB007408F8027508031C750F052B062BEF
:10160A00F9027608031C760F0B2B0C2BFA027708CB
:10161A00031C770F112B122BFB027B08F7007A08A9
:10162A00F6007908F5007808F4008030F306803077
:10163A00F70677087302031D2C2B76087202031D26
:10164A002C2B75087102031D2C2B740870020318C9
:10165A002F2B302B322B0310332B031408000030AE
:10166A00F000F1000030F200F3000A128A15882116
:10167A000A128A15FC017C08F5007507B03E840041
:10168A00FF3083138000840A033080007C08F50051
:10169A007507A03E84008001840A80010130FC079E
:1016AA0008307C02031C5A2B5B2B402BF801F901F2
:1016BA00FD017D080A128A15E5200A128A157108A9
:1016CA00FB007008FA007D08F5007507B03E84003B
:1016DA0083130008F600840A0008F70077087B02E3
:1016EA00031D792B76087A0203187C2B7D2B872B16
:1016FA007D08F5007507B03E84007A088000840AE8
:10170A007B0880007D08F5007507A03E840000086C
:10171A00F600840A0008F7007B087702031D972B5E
:10172A007A08760203189A2B9B2BA52B7D08F500C5
:10173A007507A03E84007A088000840A7B0880002E
:10174A000130FD0708307D02031CAC2BAD2B5E2B4C
:10175A006230F6006530F500F50BB12BF60BB12BB4
:10176A00B62B0A30F0000030F1007908F30078084F
:10177A00F2000A128A1550210A128A157008710499
:10178A00031DC82BC92BCD2B0430831203138806E3
:10179A000130F8070318F90A0030F9070030790216
:1017AA00C83003197802031CDB2BDC2B5D2B831258
:1017BA00031308150800770883120313A400803066
:1017CA00A4057708F8007807AB00F61FED2BEE2B7F
:1017DA00EF2B2B142B080319F32BF42B042C2B0AB5
:1017EA00031DF82BF92B012C0030F7000030F6000E
:1017FA000030F5000030F400F617F7010C2C003029
:10180A00F7000030F6000030F5000030F4007308ED
:10181A008039A4067308F8007807AC00F21F162C6A
:10182A00172C182C2C142C0803191C2C1D2C2D2CAD
:10183A002C0A031D212C222C2A2C0030F300003004
:10184A00F2000030F1000030F000F217F301352CFD
:10185A000030F3000030F2000030F1000030F000F8
:10186A007308720471047004031D3C2C3D2C542C23
:10187A000030F7000030F6000030F5000030F400C8
:10188A008030F6047F30F7042408F7047708F30061
:10189A007608F2007508F1007408F000AF2D2B08E5
:1018AA00031D582C592C622C0030F3000030F20032
:1018BA000030F1000030F000AF2D2B08F800F901DC
:1018CA007908FB002C087802FA00031CFB037A084B
:1018DA007F3EA5007B080318013E003EA60077085C
:1018EA00A3007608A2007508A1007408A0000030C1
:1018FA00F7000030F6000030F5000030F400003048
:10190A00AA000030A9000030A8000030A700AC01EE
:10191A00DC2C2C080319922C932CB32C0130F800E0
:10192A000310A00DA10DA20DA30DF80B952C0130EB
:10193A00F8000310F40DF50DF60DF70DF80B9E2CBB
:10194A00AA1FA82CA92CAA2C74140130F800031081
:10195A00A70DA80DA90DAA0DF80BAC2C730823022C
:10196A00031DC12C72082202031DC12C7108210219
:10197A00031DC12C70082002031CC42CC52CDA2CB0
:10198A002A177008A0027108031C710FCD2CCE2CE7
:10199A00A1027208031C720FD32CD42CA202730862
:1019AA00031C730FD92CDA2CA3020130AC071A30AE
:1019BA002C02031CE12CE22C8E2C23082204210485
:1019CA0020040319E92CEA2C092D2714092D0130CA
:1019DA00F8000310F40DF50DF60DF70DF80BEE2CCB
:1019EA00AA1FF82CF92CFA2C74140130F8000310F1
:1019FA00A70DA80DA90DAA0DF80BFC2CFF30A50701
:101A0A000318A60AFF30A607F61F0C2D0D2DEC2C85
:101A1A00AC01AA1F112D122D2E2DFF302705F8001B
:101A2A00FF302805F900FF302905FA007F302A0522
:101A3A00FB007B087A04790478040319252D262DE6
:101A4A00292D0130AC002E2D741C2C2D2D2D2E2D60
:101A5A00262D2C080319322D332D642D0130F4075D
:101A6A00003003180130F507003003180130F6077B
:101A7A00003003180130F707771C442D452D642DDB
:101A8A007408F8007508F9007608FA007708FB0070
:101A9A000130FC007B0DFB0CFA0CF90CF80CFC0B6A
:101AAA004F2D7B08F7007A08F6007908F5007808C8
:101ABA00F4000130A5070318A60A0030A607260875
:101ACA00803AFF0080307F02031D6D2DFF30250212
:101ADA00031C702D712D7F2DFF3083120313A50077
:101AEA000030A6000030F7000030F6000030F500A4
:101AFA000030F400831203132608803AFF00803076
:101B0A007F02031D8A2D0130250203188D2D8E2D8B
:101B1A009B2D83120313A501A6010030F7000030A4
:101B2A00F6000030F5000030F400A401831203131C
:101B3A002508AB002B1CA22DA32DA52DF617A72D2A
:101B4A007F30F6052B08F8000310780CF7002408FC
:101B5A00F7044B2C0800831203133D08CA00803097
:101B6A00CA053D08C2004207CC00BC1FBD2DBE2DD0
:101B7A00BF2D4C144C080319C32DC42DD42D4C0A67
:101B8A00031DC82DC92DD12D0030BD000030BC0069
:101B9A000030BB000030BA00BC17BD01DC2D00309C
:101BAA00BD000030BC000030BB000030BA00410864
:101BBA00CB008030CB054B084A060319E52DE62DEC
:101BCA00E72D4A174108C2004207CB00C01FEE2D7D
:101BDA00EF2DF02D4B144B080319F42DF52D052E7E
:101BEA004B0A031DF92DFA2D022E0030C1000030D8
:101BFA00C0000030BF000030BE00C017C1010D2E6A
:101C0A000030C1000030C0000030BF000030BE000C
:101C1A004C084B020318122E132E372E4A1F162E6B
:101C2A00172E192E8030CA064C08CD004B08CC005E
:101C3A004D08CB003A08CD003E08BA004D08BE0058
:101C4A003B08CD003F08BB004D08BF003C08CD0053
:101C5A004008BC004D08C0003D08CD004108BD0049
:101C6A004D08C100CD014B08C200C3014308C5009D
:101C7A004C084202C400031CC5034508803AFF0011
:101C8A0080307F02031D4B2E1A304402031C4E2E55
:101C9A004F2E842E831203133D083C043B043A045E
:101CAA00031D582E5A2E01305B2E0030CD00003015
:101CBA00BD000030BC000030BB000030BA004B0849
:101CCA00CC008C2E4D1C6A2E6B2E722E4D08C20033
:101CDA000310420C0138CD00742E0310CD0C3A1CAF
:101CEA00772E782E792ECD170130C2003D0DBD0C0E
:101CFA00BC0CBB0CBA0CC20B7B2E0130CC07831276
:101D0A0003134B084C02031C8B2E8C2E672E4A1B86
:101D1A008F2E902ED72E4C08031D942E952E9E2E74
:101D2A000030BD000030BC000030BB000030BA00FB
:101D3A00FF2F3E08BA073F0803110318013E031993
:101D4A00A72EBB07400803110318013E0319AE2E44
:101D5A00BC07410803110318013E0319B52EBD073C
:101D6A003D1CB82EB92E8B2F4D1CBC2EBD2EC42E59
:101D7A004D08C2000310420C0138CD00C62E0310D4
:101D8A00CD0C3A1CC92ECA2ECB2ECD170130C2005B
:101D9A003D0DBD0CBC0CBB0CBA0CC20BCD2E0130D8
:101DAA00CC078B2F3D08803AFF004108803A7F021A
:101DBA00031DE92E40083C02031DE92E3F083B02A1
:101DCA00031DE92E3E083A020318EC2EED2E442F8D
:101DDA00FF30C200FF30C300FF30C400FF30C5002F
:101DEA003E08C6003F08C7004008C8004108C900AD
:101DFA003A08C6023B08031C3B0F042F052FC702F3
:101E0A003C08031C3C0F0A2F0B2FC8023D08031C79
:101E1A003D0F102F112FC9024608C20747080318A1
:101E2A00470F182F192FC30748080318480F1E2FEA
:101E3A001F2FC40749080318490AC5074508BD00EA
:101E4A004408BC004308BB004208BA008030CA06F6
:101E5A004D03FF3ACD004D08031D342F352F522F65
:101E6A000130BA07003003180130BB0700300318ED
:101E7A000130BC07003003180130BD07522F3E085D
:101E8A00BA023F08031C3F0FBB024008031C400F65
:101E9A00BC024108031C410FBD023D083C043B043F
:101EAA003A04031D592F5A2F872F4D08031D5E2F01
:101EBA005F2F872F0030BD000030BC000030BB0010
:101ECA000030BA00FF2F0130C2000310BA0DBB0D5B
:101EDA00BC0DBD0DC20B6A2FCD1F742F752F762F27
:101EEA003A144D1C792F7A2F7E2F03144D0DCD00F5
:101EFA00802F0310CD0D4C080319842F852F872FAF
:101F0A000130CC02BC1F8A2F8B2F682FCB01CD1F2B
:101F1A008F2F902F9E2F4D087F390319952F962FBB
:101F2A00992F0130CB009E2F3A1C9C2F9D2F9E2F5C
:101F3A00962F4B080319A22FA32FD52F0130BA07CA
:101F4A00003003180130BB07003003180130BC070A
:101F5A00003003180130BD073D1CB42FB52FD52F13
:101F6A003A08C2003B08C3003C08C4003D08C5004B
:101F7A000130C600450DC50CC40CC30CC20CC60BFF
:101F8A00BF2F4508BD004408BC004308BB004208F7
:101F9A00BA004C0A0319D22FD32FD52F0130CC0700
:101FAA004C0A0319D92FDA2FDF2F4C08031DDE2F15
:101FBA00DF2FED2F0030BD000030BC000030BB0029
:101FCA000030BA004C08031DEB2FEC2FED2FCA018D
:101FDA004C1CF02FF12FF32FBC17F52F7F30BC05C7
:101FEA004C08C2000310420CBD00CA1FFD2FFE2F71
:061FFA00FF2FBD170800D7
:02400E00723FFF
:00000001FF
